:100000001DEF04F0FFFFFFFF0000000012000F0EC5
:100010000B6EFF0E0A6E0B2E01D003D00A2EFED7F8
:10002000FAD73E0E0A6E0A2EFED700001200210EED
:100030000A6E0A2EFED712000001026A016A006AE7
:10004000086A036A000E120000010B840BAE30EF49
:1000500000F0010E036E026A016A006A0A3602327B
:10006000FF0E120000010AAE029E000E120015C023
:10007000E9FF16C0EAFF17C0E1FF18C0E2FFEF6A10
:100080003F5200E03FBEEF8E3FBCEF8C3FBAEF8A9D
:100090003FB8EF883FB6EF863FB4EF843FB2EF82C0
:1000A0003FB0EF801950010A03E1E79459EF00F0E7
:1000B000E784E78204EC00F0E7921950010A03E1BB
:1000C00007EC00F002D017EC00F012000E0E0A6EE2
:1000D0000A2EFED7000012000001086A096A100EFD
:1000E0000C6E0134083609360450085E0550D8A05D
:1000F000053C095ED8B084EF00F004500826055096
:10010000D8B0053C0926D890003601360C2E71EF88
:1001100000F01200000100500402F4CF09F0F3CF08
:1001200008F001500502F4CF0BF0F3CF0AF00050B5
:100130000502F3500926F4500A22E86A0B22015006
:100140000402F3500926F4500A22E86A0B2205AE95
:10015000AEEF00F000500A5C01500B5801AEB5EF55
:1001600000F004500A5C05500B5808C000F009C0AC
:1001700001F00AC002F00BC003F0120000010C6A8B
:100180000E6A0250D8A4D8EF00F001C002F000C0FF
:1001900001F0006A0E860250D8A4D8EF00F001C02A
:1001A00002F0016A0E960E880250D8B4EAEF00F011
:1001B0000E50035ED8A4D8A0F0EF00F0D89002BE95
:1001C000F6EF00F0003601360236032EDFEF00F0C6
:1001D000F0EF00F0010E0C6E1CEC00F0FAEF00F0F6
:1001E000020E0C6E24EC00F0FAEF00F0040E0C6E20
:1001F00032EC00F0120000010B820BAE06EF01F0B2
:1002000003680268016800680A360232FF0E1200B5
:1002100000010B800BAE15EF01F0026A0AAEFF0E73
:10022000026E016E006E0A360232FF0E1200FF0EE1
:10023000836EFF0E956E936AFF0E816E3B6A81900E
:100240001A0E0B6EFF0E0A6E0B2E01D003D00A2E73
:10025000FED7FAD7E70E0A6E0A2EFED7000083CF2C
:100260003AF0016A3AB4012A0150000A03E1340E5F
:100270003B6E08D0016A3AB6012A0150000A02E139
:10028000310E3B6E818081921A0E0B6EFF0E0A6E4C
:100290000B2E01D003D00A2EFED7FAD7E70E0A6E36
:1002A0000A2EFED7000083CF3AF0016A3AB4012A41
:1002B0000150000A03E1350E3B6E08D0016A3AB6E0
:1002C000012A0150000A02E1320E3B6E81828194C4
:1002D0001A0E0B6EFF0E0A6E0B2E01D003D00A2EE3
:1002E000FED7FAD7E70E0A6E0A2EFED7000083CF9C
:1002F0003AF0016A3AB6012A0150000A02E1330ECF
:100300003B6E81843B50000A9AE03BC000F0120033
:100310000FD0060E006E12005B0E006E12004F0E24
:10032000006E1200660E006E12006D0E006E12005E
:100330003A50010AEEE03A50020AEEE03A50030A5F
:10034000EEE03A50040AEEE03A50050AEEE0006AA8
:1003500012000FD0800E3A6E19D0C00E3A6E16D031
:10036000940E3A6E13D0D40E3A6E10D0800E3A6EC0
:100370000DD03A50010AEEE03A50020AEEE03A504F
:10038000030AEEE03A50040AEEE0F0D73B04006EB8
:100390003A50002600C03AF0010E196E00C03FF03E
:1003A00037EC00F0196A3E6A3E503C24E96E000EBC
:1003B0003D20EA6EEECF00F000520CE03E503C24AF
:1003C000E96E000E3D20EA6EEECF3FF037EC00F014
:1003D0003E2AEAD7010E196E12009494CA840C0EBC
:1003E000BD121200C26AC00EC212C18CC18E3AC0C8
:1003F00000F000360090003600900036009000506B
:10040000C212C28066EC00F0C284C2B4FED7080EED
:10041000026EC4CF00F0000E016E025005E00036FF
:1004200000900136FF0FFAD7C3500012000E0112E0
:10043000C29012003CC0E1FF3DC0E2FF200EE66E1C
:10044000010E3C24E16E000E3D20E26E200EE66EB1
:10045000020E3C24E16E000E3D20E26E200EE66EA0
:10046000030E3C24E16E000E3D20E26E200EE66E8F
:10047000040E3C24E16E000E3D20E26E300EE66E6E
:10048000050E3C24E16E000E3D20E26EE66A040E8D
:100490003E6E000E006E3B50005C02E13A500008D8
:1004A00028E23E503C24E16E000E3D20E26E0A0E32
:1004B000046E000E056E3AC000F03BC001F06CEC1B
:1004C00000F008C000F009C001F0300E002600C0A6
:1004D000E6FF0A0E046E000E056E3AC000F03BC047
:1004E00001F06CEC00F000C03AF001C03BF03E06B9
:1004F000D0D71200CB50010F006E016A000E01220E
:100500003AC004F0000E056E8AEC00F0060E026E92
:1005100000C004F001C005F00250000105E0053202
:100520000432059EFF0FF9D704C000F0003600909A
:10053000003600900036009000360090300E001417
:10054000036E04C000F005C001F001320032019ECC
:1005500001320032019E00C0BEFF0F0EBD160350D7
:10056000BD121200BE6ABD98BD9A120007EC00F0E1
:1005700007EC00F007EC00F03CC015F03DC016F0B1
:100580003AC017F03BC018F03AC0E9FF3BC0EAFFA1
:10059000EF903CC0E1FF3DC0E2FFE66A110EE124AE
:1005A000006E00C0E1FFE76A120E005CE16E120E01
:1005B000E926EF92EF94EF90120EE95EEF94EF923E
:1005C000EF90300E3F6E37EC00F0300E3F6E37ECA0
:1005D00000F0300E3F6E37EC00F0380E3F6E37EC17
:1005E00000F0080E3F6E37EC00F0010E3F6E37EC66
:1005F00000F0060E3F6E37EC00F00C0E3F6E37EC4D
:1006000000F0010E196E120000010050086E01503A
:10061000006E016A026A036A0B6A0C6A960E036E28
:100620000A6A00C001F008C000F0086A026ABEEC65
:1006300000F012000001086A096A000E07620364F4
:10064000A0EF03F0025006180A6E075003267E0E34
:10065000D8A031EF03F0035ED8B0A5EF03F035EF7B
:1006600003F0035ED8A0AAEF03F0028E068E02C04C
:100670000EF001C00BF000C00DF000500402F4CFEA
:100680000CF001500502F4CF00F0F3CF08F00402A3
:10069000F3500C26F4500822000E00220D500502E3
:1006A000F3500C26F4500822000E002202500402DF
:1006B000F3500826F450002202500502016A000E91
:1006C0000122F3500026F45001220D500602F3508F
:1006D0000826F4500022026A000E012202220B506A
:1006E0000602F3500026F4500122000E02220E50A2
:1006F0000602F3500126F450022202BE88EF03F0F6
:1007000008360036013602360306D8B4AAEF03F0E5
:100710009BEF03F0D880800E08640030000E0022AA
:1007200001220222D8A09BEF03F0023201320032F4
:10073000034AA5EF03F00AAE029E000EADEF03F0F0
:10074000010E1CEC00F0ADEF03F0020EFBEC00F02C
:10075000ADEF03F0040E24EC00F0120000010B6A70
:100760000C6A0A6A0350D8B4F9EF03F0028E8E0EB9
:10077000035E03BEC1EF03F0D8B4C1EF03F0FDEF99
:1007800003F0036D080E035CD8A0D8EF03F0036EEE
:10079000013602C001F0026A080E035CD8A0D8EF4F
:1007A00003F00136016A0350D8A4D890E2EF03F0B9
:1007B0000350D8B4E2EF03F0D89002320132032E96
:1007C000DCEF03F00BBC01A0EFEF03F0D8A0EFEFDC
:1007D00003F0012AD8B4022A02BE0CEF04F00AAEDC
:1007E00012EF04F0021E011E012AD8B4022A12EFF1
:1007F00004F0026A016A12EF04F00B800BAE16EFF0
:1008000004F0026A0AAE16EF04F0FF0E026E016EEB
:100810000A36023216EF04F0010E0C6E08EC01F0FD
:1008200018EF04F0000E0C6E18EF04F0FF0E0C6EC3
:100830000150006E0250016E1200530E1E6E650EC6
:100840001F6E720E206E760E216E6F0E226E200EBF
:10085000236E4D0E246E6F0E256E740E266E6F0E77
:10086000276E720E286E296A530E2A6E700E2B6E3A
:10087000650E2C6E650E2D6E640E2E6E200E2F6E84
:100880003A0E306E316A300E336E300E346E300EEA
:10089000356E300E366E300E376E386A17EC01F05A
:1008A00000C032F0956AFB0E926E300E005E00C002
:1008B00032F000C03AF088EC01F000C083FF32C093
:1008C0003AF088EC01F000C039F05CD0CA80CA82EE
:1008D000F90ECB6EB2EC02F0840E3A6E0F0E3B6E48
:1008E000830E3C6E0F0E3D6EB6EC02F0010E3F6EB5
:1008F00037EC00F0010E3A6E010E3B6E1E0E3C6EA0
:10090000000E3D6EA9EC01F0020E3A6E010E3B6E38
:100910002A0E3C6E000E3D6EA9EC01F0EDEC01F0EC
:100920003A6AF2EC01F000C01AF001C01BF004ECCE
:1009300003F0000E046E000E056E000E066E7D0EB6
:10094000076E1AEC03F0AEEC03F000C01CF001C01F
:100950001DF000C03AF001C03BF0330E3C6E000EBB
:100960003D6E1AEC02F0020E3A6E080E3B6E330E2C
:100970003C6E000E3D6EA9EC01F01CC03AF07AEC22
:1009800002F0CCD739504F0AA1E0FFD7FFFFFFFF9D
:020000040030CA
:0E000000FFFFFFFFFFFFFFFFFFFFFFFFFFFF00
:00000001FF
