:10000000F9EF01F0FFFFFFFF3EEF00F000000000FE
:100010001200FFFFFFFFFFFF01C060F000C05FF0B4
:10002000E8CF20F0D8CF21F0E0CF22F0E9CF1CF0CC
:10003000EACF1DF0E1CF1EF0E2CF1FF0010E8214D7
:10004000016E0150000A04E18280100EF06E03D0B0
:100050008292180EF06E20C0E8FF21C0D8FF22C0A7
:10006000E0FF1CC0E9FF1DC0EAFF1EC0E1FF1FC08A
:10007000E2FF60C001F05FC000F0100001C05EF060
:1000800000C05DF0E9CF1CF0EACF1DF0E1CF1EF01B
:10009000E2CF1FF0016A82B4012A0150000AD8B4ED
:1000A0008284D00EF26E1CC0E9FF1DC0EAFF1EC0A4
:1000B000E1FF1FC0E2FF5EC001F05DC000F0110073
:1000C0000F0E0B6EFF0E0A6E0B2E01D003D00A2E00
:1000D000FED7FAD73E0E0A6E0A2EFED70000120097
:1000E000210E0A6E0A2EFED7120015C0E9FF16C0B7
:1000F000EAFF17C0E1FF18C0E2FFEF6A5C5200E0C0
:100100005CBEEF8E5CBCEF8C5CBAEF8A5CB8EF88AB
:100110005CB6EF865CB4EF845CB2EF825CB0EF80DB
:100120001950010A03E1E79497EF00F0E784E782B2
:1001300006EC00F0E7921950010A03E160EC00F0D0
:1001400002D070EC00F01200FF0E836EFF0E956E71
:10015000936AFF0E816E586A81901A0E0B6EFF0E25
:100160000A6E0B2E01D003D00A2EFED7FAD7E70E67
:100170000A6E0A2EFED7000083CF57F0016A57B4EB
:10018000012A0150000A03E1340E586E08D0016ABA
:1001900057B6012A0150000A02E1310E586E8180E3
:1001A00081921A0E0B6EFF0E0A6E0B2E01D003D039
:1001B0000A2EFED7FAD7E70E0A6E0A2EFED70000E7
:1001C00083CF57F0016A57B4012A0150000A03E1B6
:1001D000350E586E08D0016A57B6012A0150000A40
:1001E00002E1320E586E818281941A0E0B6EFF0E60
:1001F0000A6E0B2E01D003D00A2EFED7FAD7E70ED7
:100200000A6E0A2EFED7000083CF57F0016A57B658
:10021000012A0150000A02E1330E586E81845850C1
:10022000000A9AE058C000F012000FD0060E006ECF
:1002300012005B0E006E12004F0E006E1200660E72
:10024000006E12006D0E006E12005750010AEEE0B3
:100250005750020AEEE05750030AEEE05750040AE6
:10026000EEE05750050AEEE0006A12000FD0800E53
:10027000576E19D0C00E576E16D0940E576E13D00D
:10028000D40E576E10D0800E576E0DD05750010A05
:10029000EEE05750020AEEE05750030AEEE05750E6
:1002A000040AEEE0F0D75804006E5750002600C054
:1002B00057F0010E196E00C05CF075EC00F0196A81
:1002C0005B6A5B505924E96E000E5A20EA6EEECF4D
:1002D00000F000520CE05B505924E96E000E5A20E9
:1002E000EA6EEECF5CF075EC00F05B2AEAD7010E07
:1002F000196E12000FD0800E576E19D0C00E576EB7
:1003000016D0940E576E13D0D40E576E10D0800EA8
:10031000576E0DD05750010AEEE05750020AEEE03A
:100320005750030AEEE05750040AEEE0F0D75804A5
:10033000006E5750002600C057F0010E196E00C025
:100340005CF075EC00F0196A59C05CF075EC00F0D7
:10035000010E196E120060EC00F060EC00F060EC31
:1003600000F059C015F05AC016F057C017F058C029
:1003700018F057C0E9FF58C0EAFFEF9059C0E1FFFD
:100380005AC0E2FFE66A110EE124006E00C0E1FFF0
:10039000E76A120E005CE16E120EE926EF92EF940E
:1003A000EF90120EE95EEF94EF92EF90300E5C6EDC
:1003B00075EC00F0300E5C6E75EC00F0300E5C6E8B
:1003C00075EC00F0380E5C6E75EC00F0080E5C6E9B
:1003D00075EC00F0010E5C6E75EC00F0060E5C6EC4
:1003E00075EC00F00C0E5C6E75EC00F0010E196EF1
:1003F0001200530E276E540E286E450E296E500EB5
:100400002A6E500E2B6E450E2C6E520E2D6E200E47
:100410002E6E4D0E2F6E4F0E306E540E316E4F0EEF
:10042000326E520E336E200E346E4F0E356E4E0EFF
:10043000366E376A410E386E420E396E430E3A6E92
:10044000440E3B6E450E3C6E460E3D6E470E3E6EB4
:10045000480E3F6E490E406E4A0E416E4B0E426E84
:100460004C0E436E4D0E446E4E0E456E4F0E466E54
:10047000500E476E510E486E520E496E530E4A6E24
:10048000540E4B6E550E4C6E560E4D6E570E4E6EF4
:10049000580E4F6E590E506E5A0E516E526AA4ECA1
:1004A00000F000C053F0956AFB0E926E300E005EB5
:1004B00000C053F000C057F015EC01F000C083FFFE
:1004C00053C057F015EC01F000C056F058D0946AB4
:1004D000FF0E936E82828294D00EF26E180EF06E32
:1004E000800ED06E840E576E0F0E586E830E596EAE
:1004F0000F0E5A6EABEC01F00C0E5C6E75EC00F05A
:10050000010E5C6E75EC00F0010E576E010E586E18
:10051000270E596E000E5A6E36EC01F0380E546EEE
:10052000000E556E1A6A1B6A800E1B18006E800E34
:10053000005C02E1180E1A5C11E2020E576E080E02
:10054000586E1A505424E96E1B505520EA6EEECFB7
:1005500059F07AEC01F01A4A1B2AE6D7060E0B6E08
:10056000FF0E0A6E0B2E01D003D00A2EFED7FAD74B
:100570002C0E0A6E0A2EFED700000000CFD7565070
:100580006D0AA5E0FFD7FFFFFFFFFFFFFFFFFFFFA3
:020000040030CA
:0E000000FFFFFFFFFFFFFFFFFFFFFFFFFFFF00
:00000001FF
