:100000006AEF02F0FFFFFFFF0000000012000F0E7A
:100010000B6EFF0E0A6E0B2E01D003D00A2EFED7F8
:10002000FAD73E0E0A6E0A2EFED700001200210EED
:100030000A6E0A2EFED71200090E155CE16E0F0E35
:10004000E26EE798E796120016C0E9FF17C0EAFFD4
:1000500018C0E1FF19C0E2FFEF6A795200E079BEF3
:10006000EF8E79BCEF8C79BAEF8A79B8EF8879B6E0
:10007000EF8679B4EF8479B2EF8279B0EF801A50CD
:10008000010A03E1E79446EF00F0E784E78204EC1D
:1000900000F0E7921A50010A03E107EC00F002D0E9
:1000A00017EC00F01200FF0E836EFF0E956E936A40
:1000B000FF0E816E756A81901A0E0B6EFF0E0A6E2E
:1000C0000B2E01D003D00A2EFED7FAD7E70E0A6E08
:1000D0000A2EFED7000083CF74F0016A74B4012A9F
:1000E0000150000A03E1340E756E08D0016A74B63F
:1000F000012A0150000A02E1310E756E8180819261
:100100001A0E0B6EFF0E0A6E0B2E01D003D00A2EB4
:10011000FED7FAD7E70E0A6E0A2EFED7000083CF6D
:1001200074F0016A74B4012A0150000A03E1350E2B
:10013000756E08D0016A74B6012A0150000A02E106
:10014000320E756E818281941A0E0B6EFF0E0A6E4E
:100150000B2E01D003D00A2EFED7FAD7E70E0A6E77
:100160000A2EFED7000083CF74F0016A74B6012A0C
:100170000150000A02E1330E756E81847550000A49
:100180009AE075C000F012000FD0060E006E12004B
:100190005B0E006E12004F0E006E1200660E006EB7
:1001A00012006D0E006E12007450010AEEE07450E1
:1001B000020AEEE07450030AEEE07450040AEEE026
:1001C0007450050AEEE0006A120015C0E9FF0F0E38
:1001D000EA6EEF8804EC00F0EF8604EC00F01CEC13
:1001E00000F0EF9804EC00F01CEC00F0EF96120029
:1001F000010E766E080E756E15C0E9FF0F0EEA6EE1
:10020000755222E004EC00F004EC00F01CEC00F06D
:10021000EF9604EC00F0745200E01CEC00F0743631
:10022000D8A016EF01F0EF8817EF01F0EF9800006B
:1002300004EC00F0EF86120EE95EEFA61DEF01F070
:10024000120EE9267506DCD7766A04EC00F01CEC89
:1002500000F00000EF9604EC00F0EF8804EC00F0F2
:1002600004EC00F0765200E0EF86120EE95EEFA695
:1002700037EF01F0766A04EC00F0EFB8768004EC1A
:1002800000F004EC00F004EC00F004EC00F004ECEE
:1002900000F004EC00F004EC00F004EC00F01CECC6
:1002A00000F0120EE926EF96EF9876C000F01200EB
:1002B000756A080E766E15C0E9FF0F0EEA6E76526B
:1002C0001CE004EC00F00000EF8804EC00F0755234
:1002D00000E0EF86120EE95EEFA66CEF01F0EFB8DA
:1002E000D880EFA8D890753604EC00F01CEC00F034
:1002F000120EE926EF967606E2D7EF8804EC00F0BE
:10030000745202E01CEC00F07450D8B489EF01F094
:10031000EF98000004EC00F0EF86120EE95EEFA605
:100320008FEF01F0120EE92604EC00F01CEC00F057
:10033000EF9604EC00F01CEC00F0EF9875C000F0B4
:10034000120015C0E9FF0F0EEA6E1CEC00F0EF98EA
:1003500004EC00F0EF86120EE95EEFA6ADEF01F0BF
:10036000120EE92604EC00F004EC00F004EC00F0BE
:1003700004EC00F0EF8804EC00F012000FD0800EC7
:10038000746E19D0C00E746E16D0940E746E13D0A5
:10039000D40E746E10D0800E746E0DD07450010A9D
:1003A000EEE07450020AEEE07450030AEEE074507E
:1003B000040AEEE0F0D77504006E7450002600C009
:1003C00074F0010E1A6E00C079F024EC00F01A6A85
:1003D000786A78507624E96E000E7720EA6EEECFC8
:1003E00000F000520CE078507624E96E000E772081
:1003F000EA6EEECF79F024EC00F0782AEAD7010E0D
:100400001A6E1200C79CC79E94889486380EC66EDA
:10041000120074C0E9FF75C0EAFF120E7424006E6A
:1004200000C015F000C0E9FFEF88EF86120EE95E0C
:10043000EFA618EF02F0120007EC00F007EC00F056
:1004400007EC00F076C016F077C017F074C018F013
:1004500075C019F074C0E9FF75C0EAFFEF9076C06F
:10046000E1FF77C0E2FFE66A110EE124006E00C0F2
:10047000E1FFE76A120E005CE16E120EE926EF92D0
:10048000EF94EF90120EE95EEF94EF92EF90300E42
:10049000796E24EC00F0300E796E24EC00F0300E12
:1004A000796E24EC00F0380E796E24EC00F0080E22
:1004B000796E24EC00F0010E796E24EC00F0060E4B
:1004C000796E24EC00F00C0E796E24EC00F0010E35
:1004D0001A6E1200540E546E690E556E6D0E566EE5
:1004E000650E576E3D0E586E596A3A0E5A6E5B6A2B
:1004F000200E5C6E5D6A200E5E6E5F6A200E606E7E
:10050000616A200E626E636A200E646E656A200E58
:10051000666E676A440E686E610E696E740E6A6E6E
:10052000650E6B6E3D0E6C6E6D6A2F0E6E6E6F6A91
:100530002F0E706E716A53EC00F000C072F0956A75
:10054000FB0E926E300E005E00C072F000C074F0C0
:10055000C4EC00F000C083FF72C074F0C4EC00F083
:1005600000C073F02ED2966A956A140EC86E02EC23
:1005700002F0820E746E0F0E756E09EC02F0E5EC5F
:1005800000F0D00E746EF8EC00F0010E746EF8EC12
:1005900000F0E5EC00F0D10E746EF8EC00F0746A37
:1005A00058EC01F000C01BF0A1EC01F0700E1B1420
:1005B0001C6E1C321C9E1C321C9E1C321C9E1C324B
:1005C0001C9E300E1C260F0E1B141D6E300E1D2699
:1005D000820E746E0F0E756E09EC02F0E5EC00F001
:1005E000D00E746EF8EC00F0020E746EF8EC00F0B1
:1005F000E5EC00F0D10E746EF8EC00F0746A58EC83
:1006000001F000C01EF0A1EC01F0300E1E141F6EB0
:100610001F321F9E1F321F9E1F321F9E1F321F9EA2
:10062000300E1F260F0E1E14206E300E2026820E56
:10063000746E0F0E756E09EC02F0E5EC00F0A20E80
:10064000746EF8EC00F0020E746EF8EC00F01F0E01
:10065000746EF8EC00F01C0E746EF8EC00F0A1EC77
:1006600001F0E5EC00F0A20E746EF8EC00F0020E62
:10067000746EF8EC00F0E5EC00F0A30E746EF8EC8C
:1006800000F0010E746E58EC01F000C021F0000E75
:10069000226E010E746E58EC01F000C023F0000EC3
:1006A000246E820E746E0F0E756E09EC02F0E5EC8E
:1006B00000F0D00E746EF8EC00F0040E746EF8ECDE
:1006C00000F0E5EC00F0D10E746EF8EC00F0746A06
:1006D00058EC01F000C035F0A1EC01F0700E3514BB
:1006E000366E3632369E3632369E3632369E36324A
:1006F000369E300E36260F0E3514376E300E3726E6
:10070000820E746E0F0E756E09EC02F0E5EC00F0CF
:10071000D00E746EF8EC00F0050E746EF8EC00F07C
:10072000E5EC00F0D10E746EF8EC00F0746A58EC51
:1007300001F000C038F0A1EC01F0300E3814396E31
:100740003932399E3932399E3932399E3932399EA1
:10075000300E39260F0E38143A6E300E3A26820EBD
:10076000746E0F0E756E09EC02F0E5EC00F0D00E21
:10077000746EF8EC00F0060E746EF8EC00F0E5EC28
:1007800000F0D10E746EF8EC00F0746A58EC01F0D1
:1007900000C03BF0A1EC01F0700E3B143C6E3C320B
:1007A0003C9E3C323C9E3C323C9E3C323C9E300E59
:1007B0003C260F0E3B143D6E300E3D26820E746EAD
:1007C0000F0E756E09EC02F0E5EC00F0A20E746EEF
:1007D000F8EC00F0020E746EF8EC00F0360E746E59
:1007E000F8EC00F0390E746EF8EC00F03C0E746E0C
:1007F000F8EC00F0A1EC01F0E5EC00F0A20E746E54
:10080000F8EC00F0020E746EF8EC00F0E5EC00F08D
:10081000A30E746EF8EC00F0010E746E58EC01F04B
:1008200000C040F0000E416E010E746E58EC01F0F5
:1008300000C042F0000E436E010E746E58EC01F0E1
:1008400000C044F0000E456E840E746E0F0E756E7F
:10085000830E766E0F0E776E1CEC02F00C0E796E26
:1008600024EC00F0010E796E24EC00F0010E746EA1
:10087000010E756E540E766E000E776EBEEC01F0B2
:10088000010E746E060E756E21C076F022C077F0F0
:10089000BEEC01F0010E746E080E756E5A0E766E87
:1008A000000E776EBEEC01F0010E746E090E756ECF
:1008B00023C076F024C077F0BEEC01F0010E746E18
:1008C0000B0E756E5C0E766E000E776EBEEC01F050
:1008D000010E746E0C0E756E5E0E766E000E776EE7
:1008E000BEEC01F0010E746E0D0E756E600E766E2C
:1008F000000E776EBEEC01F0010E746E0E0E756E7A
:10090000620E766E000E776EBEEC01F0010E746E14
:100910000F0E756E640E766E000E776EBEEC01F0F3
:10092000010E746E100E756E660E766E000E776E8A
:10093000BEEC01F0020E746E010E756E680E766EDE
:10094000000E776EBEEC01F0020E746E060E756E30
:1009500040C076F041C077F0BEEC01F0020E746E3C
:10096000080E756E6E0E766E000E776EBEEC01F0A0
:10097000020E746E090E756E42C076F043C077F0B9
:10098000BEEC01F0020E746E0B0E756E700E766E7C
:10099000000E776EBEEC01F0020E746E0C0E756EDA
:1009A00044C076F045C077F0BEEC01F0020E746EE4
:1009B0000E0E756E44C076F045C077F0BEEC01F0C7
:1009C00004D07350060AD8B4CED5FFD7FFFFFFFF7F
:020000040030CA
:0E000000FFFFFFFFFFFFFFFFFFFFFFFFFFFF00
:00000001FF
