:100000002AEF01F0FFFFFFFF000000001200090EC1
:10001000155CE16E0F0EE26EE798E796120015C0D0
:10002000E9FF0F0EEA6EEF8804EC00F0EF8604ECB7
:1000300000F007EC00F0EF9804EC00F007EC00F0A3
:10004000EF961200010E376E080E366E15C0E9FFEE
:100050000F0EEA6E365222E004EC00F004EC00F0E1
:1000600007EC00F0EF9604EC00F0355200E007ECEE
:1000700000F03536D8A040EF00F0EF8841EF00F0F7
:10008000EF98000004EC00F0EF86120EE95EEFA698
:1000900047EF00F0120EE9263606DCD7376A04EC8B
:1000A00000F007EC00F00000EF9604EC00F0EF88A1
:1000B00004EC00F004EC00F0375200E0EF86120E82
:1000C000E95EEFA661EF00F0376A04EC00F0EFB8EC
:1000D000378004EC00F004EC00F004EC00F004ECD9
:1000E00000F004EC00F004EC00F004EC00F004EC90
:1000F00000F007EC00F0120EE926EF96EF9837C0FB
:1001000000F0120015C0E9FF0F0EEA6E07EC00F0D8
:10011000EF9804EC00F0EF86120EE95EEFA68EEF8A
:1001200000F0120EE92604EC00F004EC00F004EC00
:1001300000F004EC00F0EF8804EC00F01200366AE6
:10014000080E376E15C0E9FF0F0EEA6E37521CE03D
:1001500004EC00F00000EF8804EC00F0365200E000
:10016000EF86120EE95EEFA6B3EF00F0EFB8D8808D
:10017000EFA8D890363604EC00F007EC00F0120E31
:10018000E926EF963706E2D7EF8804EC00F0355207
:1001900002E007EC00F03550D8B4D0EF00F0EF9853
:1001A000000004EC00F0EF86120EE95EEFA6D6EF39
:1001B00000F0120EE92604EC00F007EC00F0EF96D8
:1001C00004EC00F007EC00F0EF9836C000F01200ED
:1001D00035C037F036C038F037C0E9FF38C0EAFF25
:1001E000374A382AEECF00F00052F6E13550375C3E
:1001F000006E36503858016E010E005E000E015A36
:100200001200016AACB2012A0150000A02E10000AA
:10021000F8D735C0ADFF120035C0E9FF36C0EAFFA0
:10022000120E3524006E00C015F000C0E9FFEF8803
:10023000EF86120EE95EEFA61BEF01F01200AC8A0A
:10024000900EAB6E948E949C9EAA03D0AECF39F0E4
:10025000FBD71200480E166E650E176E6C0E186EE8
:100260006C0E196E6F0E1A6E1B6A570E1C6E6F0E97
:100270001D6E720E1E6E6C0E1F6E640E206E216A55
:10028000540E226E650E236E730E246E740E256E50
:10029000266AF26A966A956A936A820E356E0F0E26
:1002A000366E0CEC01F0936A816A0FEC00F0A20E3E
:1002B000356E22EC00F0030E356E22EC00F0160EC7
:1002C000356E22EC00F01C0E356E22EC00F0220E92
:1002D000356E22EC00F082EC00F00FEC00F0A20E84
:1002E000356E22EC00F0030E356E22EC00F00FECC0
:1002F00000F082EC00F0010E356E9FEC00F000C0C3
:100300002DF0000E2E6E010E356E9FEC00F000C039
:100310002FF0000E306E010E356E9FEC00F000C025
:1003200031F0000E326E356A9FEC00F000C033F001
:10033000000E346E82EC00F0330EAF6EAC841FEC16
:1003400001F02DC027F02EC028F0336A346A2DC08A
:1003500035F02EC036F0E8EC00F0800E3418026E56
:10036000800E0118025C02E10050335C0DE2335054
:100370002724E96E34502820EA6EEECF35F001ECE8
:1003800001F0334A342AE3D7200E356E01EC01F038
:100390002FC029F030C02AF0336A346A2FC035F0FC
:1003A00030C036F0E8EC00F0800E3418026E800E9B
:1003B0000118025C02E10050335C0DE23350292445
:1003C000E96E34502A20EA6EEECF35F001EC01F0F0
:1003D000334A342AE3D731C02BF032C02CF0336AD1
:1003E000346A31C035F032C036F0E8EC00F0800EEF
:1003F0003418026E800E0118025C02E10050335C7A
:100400000DE233502B24E96E34502C20EA6EEECFEF
:1004100035F001EC01F0334A342AE3D7FFD7FFFF70
:020000040030CA
:0E000000FFFFFFFFFFFFFFFFFFFFFFFFFFFF00
:00000001FF
