:1000000096EF00F0FFFFFFFFFF0E836EFF0E956E71
:10001000936AFF0E816E176A81901A0E0B6EFF0EA7
:100020000A6E0B2E01D003D00A2EFED7FAD7E70EA8
:100030000A6E0A2EFED7000083CF16F0016A16B4AE
:10004000012A0150000A03E1340E176E08D0016A3C
:1000500016B6012A0150000A02E1310E176E8180A6
:1000600081921A0E0B6EFF0E0A6E0B2E01D003D07A
:100070000A2EFED7FAD7E70E0A6E0A2EFED7000028
:1000800083CF16F0016A16B4012A0150000A03E179
:10009000350E176E08D0016A16B6012A0150000A03
:1000A00002E1320E176E818281941A0E0B6EFF0EE2
:1000B0000A6E0B2E01D003D00A2EFED7FAD7E70E18
:1000C0000A6E0A2EFED7000083CF16F0016A16B61C
:1000D000012A0150000A02E1330E176E8184175085
:1000E000000A9AE017C000F012000FD0060E006E52
:1000F00012005B0E006E12004F0E006E1200660EB4
:10010000006E12006D0E006E12001650010AEEE035
:100110001650020AEEE01650030AEEE01650040AEA
:10012000EEE01650050AEEE0006A120004EC00F062
:1001300000C015F0956AFB0E926E300E005E00C096
:1001400015F000C016F075EC00F000C083FF15C07C
:1001500016F075EC00F056D09398939A939C939E6A
:10016000816A8198818A819C818E080E0B6EFF0EB8
:100170000A6E0B2E01D003D00A2EFED7FAD7C40E7A
:100180000A6E0A2EFED7000000008188819A819CA9
:10019000818E080E0B6EFF0E0A6E0B2E01D003D05F
:1001A0000A2EFED7FAD7C40E0A6E0A2EFED700001A
:1001B00000008188819A818C819E080E0B6EFF0E53
:1001C0000A6E0B2E01D003D00A2EFED7FAD7C40E2A
:1001D0000A6E0A2EFED7000000008198818A818C69
:1001E000819E080E0B6EFF0E0A6E0B2E01D003D0FF
:1001F0000A2EFED7FAD7C40E0A6E0A2EFED70000CA
:100200000000AFD700505B0AA7E0FFD7FFFFFFFF5A
:020000040030CA
:0E000000FFFFFFFFFFFFFFFFFFFFFFFFFFFF00
:00000001FF
